{
  "contractName": "SmartCurrency",
  "abi": [
    {
      "constant": false,
      "inputs": [
        {
          "name": "updateString",
          "type": "string"
        }
      ],
      "name": "updateStatus",
      "outputs": [
        {
          "name": "updated",
          "type": "bool"
        }
      ],
      "payable": false,
      "type": "function",
      "stateMutability": "nonpayable"
    },
    {
      "constant": false,
      "inputs": [
        {
          "name": "index",
          "type": "uint256"
        }
      ],
      "name": "getStatus",
      "outputs": [
        {
          "name": "value",
          "type": "string"
        }
      ],
      "payable": false,
      "type": "function",
      "stateMutability": "nonpayable"
    },
    {
      "constant": false,
      "inputs": [
        {
          "name": "receiver",
          "type": "address"
        },
        {
          "name": "bank_name",
          "type": "string"
        },
        {
          "name": "amount",
          "type": "uint256"
        },
        {
          "name": "date",
          "type": "string"
        }
      ],
      "name": "SendCoins",
      "outputs": [
        {
          "name": "sufficient",
          "type": "bool"
        }
      ],
      "payable": false,
      "type": "function",
      "stateMutability": "nonpayable"
    },
    {
      "constant": false,
      "inputs": [
        {
          "name": "addr",
          "type": "address"
        }
      ],
      "name": "getBalance",
      "outputs": [
        {
          "name": "",
          "type": "uint256"
        }
      ],
      "payable": false,
      "type": "function",
      "stateMutability": "nonpayable"
    },
    {
      "inputs": [],
      "payable": false,
      "type": "constructor",
      "stateMutability": "nonpayable"
    },
    {
      "anonymous": false,
      "inputs": [
        {
          "indexed": true,
          "name": "_from",
          "type": "address"
        },
        {
          "indexed": true,
          "name": "_to",
          "type": "address"
        },
        {
          "indexed": false,
          "name": "_value",
          "type": "uint256"
        },
        {
          "indexed": false,
          "name": "_bank_name",
          "type": "string"
        },
        {
          "indexed": false,
          "name": "_date",
          "type": "string"
        }
      ],
      "name": "Transfer",
      "type": "event"
    }
  ],
  "bytecode": "0x6060604052341561000f57600080fd5b620186a06000803373ffffffffffffffffffffffffffffffffffffffff1673ffffffffffffffffffffffffffffffffffffffff16815260200190815260200160002081905550610928806100646000396000f300606060405260043610610062576000357c0100000000000000000000000000000000000000000000000000000000900463ffffffff1680632c215998146100675780635c622a0e146100dc578063b374bde514610178578063f8b2cb4f14610258575b600080fd5b341561007257600080fd5b6100c2600480803590602001908201803590602001908080601f016020809104026020016040519081016040528093929190818152602001838380828437820191505050505050919050506102a5565b604051808215151515815260200191505060405180910390f35b34156100e757600080fd5b6100fd600480803590602001909190505061032c565b6040518080602001828103825283818151815260200191508051906020019080838360005b8381101561013d578082015181840152602081019050610122565b50505050905090810190601f16801561016a5780820380516001836020036101000a031916815260200191505b509250505060405180910390f35b341561018357600080fd5b61023e600480803573ffffffffffffffffffffffffffffffffffffffff1690602001909190803590602001908201803590602001908080601f0160208091040260200160405190810160405280939291908181526020018383808284378201915050505050509190803590602001909190803590602001908201803590602001908080601f0160208091040260200160405190810160405280939291908181526020018383808284378201915050505050509190505061042e565b604051808215151515815260200191505060405180910390f35b341561026357600080fd5b61028f600480803573ffffffffffffffffffffffffffffffffffffffff1690602001909190505061075b565b6040518082815260200191505060405180910390f35b6000600160003373ffffffffffffffffffffffffffffffffffffffff1673ffffffffffffffffffffffffffffffffffffffff16815260200190815260200160002060000180548060010182816102fb91906107a3565b9160005260206000209001600084909190915090805190602001906103219291906107cf565b505060019050919050565b61033461084f565b600160003373ffffffffffffffffffffffffffffffffffffffff1673ffffffffffffffffffffffffffffffffffffffff1681526020019081526020016000206000018281548110151561038357fe5b90600052602060002090018054600181600116156101000203166002900480601f0160208091040260200160405190810160405280929190818152602001828054600181600116156101000203166002900480156104225780601f106103f757610100808354040283529160200191610422565b820191906000526020600020905b81548152906001019060200180831161040557829003601f168201915b50505050509050919050565b6000826000803373ffffffffffffffffffffffffffffffffffffffff1673ffffffffffffffffffffffffffffffffffffffff16815260200190815260200160002054101561047f5760009050610753565b826000803373ffffffffffffffffffffffffffffffffffffffff1673ffffffffffffffffffffffffffffffffffffffff16815260200190815260200160002060008282540392505081905550826000808773ffffffffffffffffffffffffffffffffffffffff1673ffffffffffffffffffffffffffffffffffffffff16815260200190815260200160002060008282540192505081905550600160003373ffffffffffffffffffffffffffffffffffffffff1673ffffffffffffffffffffffffffffffffffffffff168152602001908152602001600020600001805480600101828161056b91906107a3565b9160005260206000209001600086909190915090805190602001906105919291906107cf565b5050600160003373ffffffffffffffffffffffffffffffffffffffff1673ffffffffffffffffffffffffffffffffffffffff16815260200190815260200160002060000180548060010182816105e791906107a3565b91600052602060002090016000849091909150908051906020019061060d9291906107cf565b50508473ffffffffffffffffffffffffffffffffffffffff163373ffffffffffffffffffffffffffffffffffffffff167f5958983c36c78f71aaec2c8d1eb5f392fd57316d842a6aa664705e3e198b7253858786604051808481526020018060200180602001838103835285818151815260200191508051906020019080838360005b838110156106ab578082015181840152602081019050610690565b50505050905090810190601f1680156106d85780820380516001836020036101000a031916815260200191505b50838103825284818151815260200191508051906020019080838360005b838110156107115780820151818401526020810190506106f6565b50505050905090810190601f16801561073e5780820380516001836020036101000a031916815260200191505b509550505050505060405180910390a3600190505b949350505050565b60008060008373ffffffffffffffffffffffffffffffffffffffff1673ffffffffffffffffffffffffffffffffffffffff168152602001908152602001600020549050919050565b8154818355818115116107ca578183600052602060002091820191016107c99190610863565b5b505050565b828054600181600116156101000203166002900490600052602060002090601f016020900481019282601f1061081057805160ff191683800117855561083e565b8280016001018555821561083e579182015b8281111561083d578251825591602001919060010190610822565b5b50905061084b919061088f565b5090565b602060405190810160405280600081525090565b61088c91905b80821115610888576000818161087f91906108b4565b50600101610869565b5090565b90565b6108b191905b808211156108ad576000816000905550600101610895565b5090565b90565b50805460018160011615610100020316600290046000825580601f106108da57506108f9565b601f0160209004906000526020600020908101906108f8919061088f565b5b505600a165627a7a72305820980b0d955e9c73945b8fb0ef160a3fe8e4325d340367129a5b484963ac39ffd20029",
  "source": "pragma solidity ^0.4.4;\n\n   \n   contract SmartCurrency {\n    mapping (address => uint256) balances;\n    mapping (address => Usr ) Users;\n   \n    //users will be stored in address array.\n   struct Usr {\n    \n    string [] details;\n    \n    }\n\n   event Transfer(address indexed _from, address indexed _to, uint256 _value , string _bank_name, string _date); //transfer amount from to receiver\n    \n  function SmartCurrency() {\n        balances[msg.sender]= 100000;\n      \n   }\n\n   function SendCoins(address receiver,string bank_name, uint amount, string date)returns(bool sufficient) {\n        if (balances[msg.sender] < amount) return false; // checks balance is not 0.\n        balances[msg.sender] -= amount; // deducts  balance from Sender.\n        balances[receiver] += amount; // increments  balance of  receiver.\n        Users[msg.sender].details.push(bank_name);\n        Users[msg.sender].details.push(date);\n        Transfer(msg.sender, receiver, amount , bank_name, date); // event transfer gets called.\n        return true;\n    }\n    \n   function getBalance(address addr) returns(uint ) {\n        return balances[addr]; // returns balance of reciever.\n        \n   }\n    function updateStatus (string updateString) returns (bool updated) {\n         Users[msg.sender].details.push(updateString);\n         return true;\n    }\n    \n    function getStatus(uint index) returns(string value ) {\n     return Users[msg.sender].details[index];\n     }\n     \n}",
  "sourcePath": "/home/manoj/chequeclearance workspace/chequecc working/contracts/SmartCurrency.sol",
  "compiler": {
    "name": "solc",
    "version": "0.4.18+commit.9cf6e910.Emscripten.clang"
  },
  "schemaVersion": "1.0.1",
  "updatedAt": "2017-11-09T13:20:48.120Z"
}